:100000000C942A000C9434000C9434000C943400AA
:100010000C9434000C9434000C9434000C94340090
:100020000C9434000C9434000C9434000C94340080
:100030000C9434000C9434000C9434000C94340070
:100040000C9434000C9434000C9434000C94340060
:100050000C94340011241FBECFE5D8E0DEBFCDBF25
:100060000E9436000C9464000C9400008FEF8ABB51
:10007000909A80E020E533EC51E040E8809911C08F
:10008000813019F48BB3869521F44BBBC9010197DC
:10009000F1F78BB386958BBBC9010197F1F781E02E
:1000A000EDCF823029F48BB390E08134910524F0B8
:1000B0005BBBC9010197F1F78BB3880F8BBBC901FB
:0C00C0000197F1F782E0DACFF894FFCF4F
:00000001FF
